{
  "contractName": "JeffreyToken",
  "abi": [
    {
      "inputs": [
        {
          "internalType": "string",
          "name": "name_",
          "type": "string"
        },
        {
          "internalType": "string",
          "name": "symbol_",
          "type": "string"
        }
      ],
      "stateMutability": "nonpayable",
      "type": "constructor"
    },
    {
      "anonymous": false,
      "inputs": [
        {
          "indexed": true,
          "internalType": "address",
          "name": "owner",
          "type": "address"
        },
        {
          "indexed": true,
          "internalType": "address",
          "name": "spender",
          "type": "address"
        },
        {
          "indexed": false,
          "internalType": "uint256",
          "name": "value",
          "type": "uint256"
        }
      ],
      "name": "Approval",
      "type": "event"
    },
    {
      "anonymous": false,
      "inputs": [
        {
          "indexed": true,
          "internalType": "address",
          "name": "from",
          "type": "address"
        },
        {
          "indexed": true,
          "internalType": "address",
          "name": "to",
          "type": "address"
        },
        {
          "indexed": false,
          "internalType": "uint256",
          "name": "value",
          "type": "uint256"
        }
      ],
      "name": "Transfer",
      "type": "event"
    },
    {
      "inputs": [],
      "name": "name",
      "outputs": [
        {
          "internalType": "string",
          "name": "",
          "type": "string"
        }
      ],
      "stateMutability": "view",
      "type": "function",
      "constant": true
    },
    {
      "inputs": [],
      "name": "symbol",
      "outputs": [
        {
          "internalType": "string",
          "name": "",
          "type": "string"
        }
      ],
      "stateMutability": "view",
      "type": "function",
      "constant": true
    },
    {
      "inputs": [],
      "name": "totalSupply",
      "outputs": [
        {
          "internalType": "uint256",
          "name": "",
          "type": "uint256"
        }
      ],
      "stateMutability": "view",
      "type": "function",
      "constant": true
    },
    {
      "inputs": [
        {
          "internalType": "address",
          "name": "_owner",
          "type": "address"
        }
      ],
      "name": "balanceOf",
      "outputs": [
        {
          "internalType": "uint256",
          "name": "",
          "type": "uint256"
        }
      ],
      "stateMutability": "view",
      "type": "function",
      "constant": true
    },
    {
      "inputs": [
        {
          "internalType": "uint256",
          "name": "_numTokens",
          "type": "uint256"
        }
      ],
      "name": "mintToSender",
      "outputs": [],
      "stateMutability": "nonpayable",
      "type": "function"
    },
    {
      "inputs": [
        {
          "internalType": "address",
          "name": "_to",
          "type": "address"
        },
        {
          "internalType": "uint256",
          "name": "value",
          "type": "uint256"
        }
      ],
      "name": "transfer",
      "outputs": [
        {
          "internalType": "bool",
          "name": "",
          "type": "bool"
        }
      ],
      "stateMutability": "nonpayable",
      "type": "function"
    },
    {
      "inputs": [
        {
          "internalType": "address",
          "name": "spender",
          "type": "address"
        },
        {
          "internalType": "uint256",
          "name": "amount",
          "type": "uint256"
        }
      ],
      "name": "approve",
      "outputs": [
        {
          "internalType": "bool",
          "name": "",
          "type": "bool"
        }
      ],
      "stateMutability": "nonpayable",
      "type": "function"
    },
    {
      "inputs": [
        {
          "internalType": "address",
          "name": "owner",
          "type": "address"
        },
        {
          "internalType": "address",
          "name": "spender",
          "type": "address"
        }
      ],
      "name": "allowance",
      "outputs": [
        {
          "internalType": "uint256",
          "name": "",
          "type": "uint256"
        }
      ],
      "stateMutability": "view",
      "type": "function",
      "constant": true
    },
    {
      "inputs": [
        {
          "internalType": "address",
          "name": "from",
          "type": "address"
        },
        {
          "internalType": "address",
          "name": "to",
          "type": "address"
        },
        {
          "internalType": "uint256",
          "name": "amount",
          "type": "uint256"
        }
      ],
      "name": "transferFrom",
      "outputs": [
        {
          "internalType": "bool",
          "name": "",
          "type": "bool"
        }
      ],
      "stateMutability": "nonpayable",
      "type": "function"
    }
  ],
  "bytecode": "0x60806040523480156200001157600080fd5b50604051620014bc380380620014bc8339818101604052810190620000379190620002c6565b81600090805190602001906200004f92919062000079565b5080600190805190602001906200006892919062000079565b5060006002819055505050620003b0565b82805462000087906200037a565b90600052602060002090601f016020900481019282620000ab5760008555620000f7565b82601f10620000c657805160ff1916838001178555620000f7565b82800160010185558215620000f7579182015b82811115620000f6578251825591602001919060010190620000d9565b5b5090506200010691906200010a565b5090565b5b80821115620001255760008160009055506001016200010b565b5090565b6000604051905090565b600080fd5b600080fd5b600080fd5b600080fd5b6000601f19601f8301169050919050565b7f4e487b7100000000000000000000000000000000000000000000000000000000600052604160045260246000fd5b620001928262000147565b810181811067ffffffffffffffff82111715620001b457620001b362000158565b5b80604052505050565b6000620001c962000129565b9050620001d7828262000187565b919050565b600067ffffffffffffffff821115620001fa57620001f962000158565b5b620002058262000147565b9050602081019050919050565b60005b838110156200023257808201518184015260208101905062000215565b8381111562000242576000848401525b50505050565b60006200025f6200025984620001dc565b620001bd565b9050828152602081018484840111156200027e576200027d62000142565b5b6200028b84828562000212565b509392505050565b600082601f830112620002ab57620002aa6200013d565b5b8151620002bd84826020860162000248565b91505092915050565b60008060408385031215620002e057620002df62000133565b5b600083015167ffffffffffffffff81111562000301576200030062000138565b5b6200030f8582860162000293565b925050602083015167ffffffffffffffff81111562000333576200033262000138565b5b620003418582860162000293565b9150509250929050565b7f4e487b7100000000000000000000000000000000000000000000000000000000600052602260045260246000fd5b600060028204905060018216806200039357607f821691505b60208210811415620003aa57620003a96200034b565b5b50919050565b6110fc80620003c06000396000f3fe608060405234801561001057600080fd5b50600436106100935760003560e01c806370a082311161006657806370a08231146101345780639103ab901461016457806395d89b4114610180578063a9059cbb1461019e578063dd62ed3e146101ce57610093565b806306fdde0314610098578063095ea7b3146100b657806318160ddd146100e657806323b872dd14610104575b600080fd5b6100a06101fe565b6040516100ad9190610a2c565b60405180910390f35b6100d060048036038101906100cb9190610ae7565b610290565b6040516100dd9190610b42565b60405180910390f35b6100ee6102ac565b6040516100fb9190610b6c565b60405180910390f35b61011e60048036038101906101199190610b87565b6102b6565b60405161012b9190610b42565b60405180910390f35b61014e60048036038101906101499190610bda565b6102de565b60405161015b9190610b6c565b60405180910390f35b61017e60048036038101906101799190610c07565b610327565b005b610188610399565b6040516101959190610a2c565b60405180910390f35b6101b860048036038101906101b39190610ae7565b61042b565b6040516101c59190610b42565b60405180910390f35b6101e860048036038101906101e39190610c34565b610447565b6040516101f59190610b6c565b60405180910390f35b60606000805461020d90610ca3565b80601f016020809104026020016040519081016040528092919081815260200182805461023990610ca3565b80156102865780601f1061025b57610100808354040283529160200191610286565b820191906000526020600020905b81548152906001019060200180831161026957829003601f168201915b5050505050905090565b6000803390506102a18185856104ce565b600191505092915050565b6000600254905090565b6000803390506102c7858285610699565b6102d2858585610725565b60019150509392505050565b6000600360008373ffffffffffffffffffffffffffffffffffffffff1673ffffffffffffffffffffffffffffffffffffffff168152602001908152602001600020549050919050565b80600360003373ffffffffffffffffffffffffffffffffffffffff1673ffffffffffffffffffffffffffffffffffffffff16815260200190815260200160002060008282546103769190610d04565b92505081905550806002600082825461038f9190610d04565b9250508190555050565b6060600180546103a890610ca3565b80601f01602080910402602001604051908101604052809291908181526020018280546103d490610ca3565b80156104215780601f106103f657610100808354040283529160200191610421565b820191906000526020600020905b81548152906001019060200180831161040457829003601f168201915b5050505050905090565b60008033905061043c818585610725565b600191505092915050565b6000600460008473ffffffffffffffffffffffffffffffffffffffff1673ffffffffffffffffffffffffffffffffffffffff16815260200190815260200160002060008373ffffffffffffffffffffffffffffffffffffffff1673ffffffffffffffffffffffffffffffffffffffff16815260200190815260200160002054905092915050565b600073ffffffffffffffffffffffffffffffffffffffff168373ffffffffffffffffffffffffffffffffffffffff16141561053e576040517f08c379a000000000000000000000000000000000000000000000000000000000815260040161053590610dcc565b60405180910390fd5b600073ffffffffffffffffffffffffffffffffffffffff168273ffffffffffffffffffffffffffffffffffffffff1614156105ae576040517f08c379a00000000000000000000000000000000000000000000000000000000081526004016105a590610e5e565b60405180910390fd5b80600460008573ffffffffffffffffffffffffffffffffffffffff1673ffffffffffffffffffffffffffffffffffffffff16815260200190815260200160002060008473ffffffffffffffffffffffffffffffffffffffff1673ffffffffffffffffffffffffffffffffffffffff168152602001908152602001600020819055508173ffffffffffffffffffffffffffffffffffffffff168373ffffffffffffffffffffffffffffffffffffffff167f8c5be1e5ebec7d5bd14f71427d1e84f3dd0314c0f7b2291e5b200ac8c7c3b9258360405161068c9190610b6c565b60405180910390a3505050565b60006106a58484610447565b90507fffffffffffffffffffffffffffffffffffffffffffffffffffffffffffffffff811461071f5781811015610711576040517f08c379a000000000000000000000000000000000000000000000000000000000815260040161070890610ef0565b60405180910390fd5b61071e84848484036104ce565b5b50505050565b600073ffffffffffffffffffffffffffffffffffffffff168373ffffffffffffffffffffffffffffffffffffffff161415610795576040517f08c379a000000000000000000000000000000000000000000000000000000000815260040161078c90610f82565b60405180910390fd5b600073ffffffffffffffffffffffffffffffffffffffff168273ffffffffffffffffffffffffffffffffffffffff161415610805576040517f08c379a00000000000000000000000000000000000000000000000000000000081526004016107fc90611014565b60405180910390fd5b6000600360008573ffffffffffffffffffffffffffffffffffffffff1673ffffffffffffffffffffffffffffffffffffffff1681526020019081526020016000205490508181101561088c576040517f08c379a0000000000000000000000000000000000000000000000000000000008152600401610883906110a6565b60405180910390fd5b818103600360008673ffffffffffffffffffffffffffffffffffffffff1673ffffffffffffffffffffffffffffffffffffffff1681526020019081526020016000208190555081600360008573ffffffffffffffffffffffffffffffffffffffff1673ffffffffffffffffffffffffffffffffffffffff16815260200190815260200160002060008282546109219190610d04565b925050819055508273ffffffffffffffffffffffffffffffffffffffff168473ffffffffffffffffffffffffffffffffffffffff167fddf252ad1be2c89b69c2b068fc378daa952ba7f163c4a11628f55a4df523b3ef846040516109859190610b6c565b60405180910390a350505050565b600081519050919050565b600082825260208201905092915050565b60005b838110156109cd5780820151818401526020810190506109b2565b838111156109dc576000848401525b50505050565b6000601f19601f8301169050919050565b60006109fe82610993565b610a08818561099e565b9350610a188185602086016109af565b610a21816109e2565b840191505092915050565b60006020820190508181036000830152610a4681846109f3565b905092915050565b600080fd5b600073ffffffffffffffffffffffffffffffffffffffff82169050919050565b6000610a7e82610a53565b9050919050565b610a8e81610a73565b8114610a9957600080fd5b50565b600081359050610aab81610a85565b92915050565b6000819050919050565b610ac481610ab1565b8114610acf57600080fd5b50565b600081359050610ae181610abb565b92915050565b60008060408385031215610afe57610afd610a4e565b5b6000610b0c85828601610a9c565b9250506020610b1d85828601610ad2565b9150509250929050565b60008115159050919050565b610b3c81610b27565b82525050565b6000602082019050610b576000830184610b33565b92915050565b610b6681610ab1565b82525050565b6000602082019050610b816000830184610b5d565b92915050565b600080600060608486031215610ba057610b9f610a4e565b5b6000610bae86828701610a9c565b9350506020610bbf86828701610a9c565b9250506040610bd086828701610ad2565b9150509250925092565b600060208284031215610bf057610bef610a4e565b5b6000610bfe84828501610a9c565b91505092915050565b600060208284031215610c1d57610c1c610a4e565b5b6000610c2b84828501610ad2565b91505092915050565b60008060408385031215610c4b57610c4a610a4e565b5b6000610c5985828601610a9c565b9250506020610c6a85828601610a9c565b9150509250929050565b7f4e487b7100000000000000000000000000000000000000000000000000000000600052602260045260246000fd5b60006002820490506001821680610cbb57607f821691505b60208210811415610ccf57610cce610c74565b5b50919050565b7f4e487b7100000000000000000000000000000000000000000000000000000000600052601160045260246000fd5b6000610d0f82610ab1565b9150610d1a83610ab1565b9250827fffffffffffffffffffffffffffffffffffffffffffffffffffffffffffffffff03821115610d4f57610d4e610cd5565b5b828201905092915050565b7f4552433230203a2063616e206e6f7420617070726f76652066726f6d2074686560008201527f207a65726f206164647265737300000000000000000000000000000000000000602082015250565b6000610db6602d8361099e565b9150610dc182610d5a565b604082019050919050565b60006020820190508181036000830152610de581610da9565b9050919050565b7f4552433230203a2063616e206e6f742061646420617070726f76616c20746f2060008201527f746865207a65726f206164647265737300000000000000000000000000000000602082015250565b6000610e4860308361099e565b9150610e5382610dec565b604082019050919050565b60006020820190508181036000830152610e7781610e3b565b9050919050565b7f45524332303a20696e73756666696369656e7420616c6c6f77616e636520746f60008201527f207370656e640000000000000000000000000000000000000000000000000000602082015250565b6000610eda60268361099e565b9150610ee582610e7e565b604082019050919050565b60006020820190508181036000830152610f0981610ecd565b9050919050565b7f45524332303a2063616e206e6f74207472616e736665722066726f6d2074686560008201527f207a65726f206164647265737300000000000000000000000000000000000000602082015250565b6000610f6c602d8361099e565b9150610f7782610f10565b604082019050919050565b60006020820190508181036000830152610f9b81610f5f565b9050919050565b7f45524332303a2063616e206e6f74207472616e7366657220746f20746865207a60008201527f65726f2061646472657373000000000000000000000000000000000000000000602082015250565b6000610ffe602b8361099e565b915061100982610fa2565b604082019050919050565b6000602082019050818103600083015261102d81610ff1565b9050919050565b7f45524332303a20696e73756666696369656e742066756e647320746f20636f6d60008201527f706c657465207472616e73666572000000000000000000000000000000000000602082015250565b6000611090602e8361099e565b915061109b82611034565b604082019050919050565b600060208201905081810360008301526110bf81611083565b905091905056fea2646970667358221220d82f1a948e330049d6bc5ce835a9b69c76bd4931fb552ba28880f3b0bc271c7164736f6c634300080c0033",
  "immutableReferences": {},
  "source": "// SPDX-License-Identifier: MIT\npragma solidity ^0.8.0; \nimport \"@openzeppelin/contracts/token/ERC20/IERC20.sol\"; \n\ncontract JeffreyToken is IERC20 {\n    string private _name; \n    string private _symbol; \n    uint256 private _totalSupply; \n    mapping(address => uint256) private _balanceByAddress; \n    mapping(address => mapping(address => uint256)) private _allowances; \n\n    constructor(string memory name_, string memory symbol_) {\n        _name = name_; \n        _symbol = symbol_; \n        _totalSupply = 0; \n    }\n\n    function name() external view returns (string memory) {\n        return _name; \n    }\n\n    function symbol() external view returns (string memory) {\n        return _symbol; \n    }\n\n    function totalSupply() public view returns (uint256) {\n        return _totalSupply; \n    }\n\n    function balanceOf(address _owner) public view returns (uint256) {\n        return _balanceByAddress[_owner]; \n    }\n\n    function mintToSender(uint _numTokens) public {\n        _balanceByAddress[msg.sender] += _numTokens; \n        _totalSupply += _numTokens; \n    }\n\n    function transfer(address _to, uint256 value) public returns (bool) {\n        address owner = msg.sender; \n        _transfer(owner, _to, value); \n        return true;\n    }\n\n    function _transfer(address from, address to, uint256 amount) internal {\n        require(from != address(0), \"ERC20: can not transfer from the zero address\"); \n        require(to != address(0), \"ERC20: can not transfer to the zero address\"); \n\n        uint256 fromBalance = _balanceByAddress[from]; \n        require(fromBalance >= amount, \"ERC20: insufficient funds to complete transfer\"); \n        unchecked {\n            _balanceByAddress[from] = fromBalance - amount; \n        }\n        _balanceByAddress[to] += amount; \n\n        emit Transfer(from, to, amount); \n        \n    }\n    \n    function approve(address spender, uint256 amount) public override returns(bool) {\n        address owner = msg.sender; \n        _approve(owner, spender, amount); \n        return true; \n    }\n\n    function _approve(address owner, address spender, uint256 amount) internal {\n        require(owner != address(0), \"ERC20 : can not approve from the zero address\"); \n        require(spender != address(0), \"ERC20 : can not add approval to the zero address\"); \n\n        _allowances[owner][spender] = amount; \n        emit Approval(owner, spender, amount); \n    }\n\n    function allowance(address owner, address spender) public view returns(uint256) {\n        return _allowances[owner][spender]; \n    }\n\n    function transferFrom(address from, address to, uint256 amount) public returns (bool) {\n        address spender = msg.sender; \n        _spendAllowance(from, spender, amount); \n        _transfer(from, to, amount); \n        return true; \n    }\n\n    function _spendAllowance(address owner, address spender, uint256 amount) internal {\n        uint256 currentAllowance = allowance(owner, spender); \n        if(currentAllowance != type(uint256).max) {\n            require(currentAllowance >= amount, \"ERC20: insufficient allowance to spend\"); \n            unchecked {\n                _approve(owner, spender, currentAllowance - amount); \n            }\n        }\n    }\n\n\n}",
  "sourcePath": "/Users/jeffreylamothe/Workspace/jeffrey-token/contracts/jeffrey-token/JeffreyToken.sol",
  "compiler": {
    "name": "solc",
    "version": "0.8.12+commit.f00d7308.Emscripten.clang"
  },
  "schemaVersion": "3.4.6",
  "updatedAt": "2022-03-25T14:40:15.341Z",
  "networkType": "ethereum",
  "devdoc": {
    "kind": "dev",
    "methods": {
      "allowance(address,address)": {
        "details": "Returns the remaining number of tokens that `spender` will be allowed to spend on behalf of `owner` through {transferFrom}. This is zero by default. This value changes when {approve} or {transferFrom} are called."
      },
      "approve(address,uint256)": {
        "details": "Sets `amount` as the allowance of `spender` over the caller's tokens. Returns a boolean value indicating whether the operation succeeded. IMPORTANT: Beware that changing an allowance with this method brings the risk that someone may use both the old and the new allowance by unfortunate transaction ordering. One possible solution to mitigate this race condition is to first reduce the spender's allowance to 0 and set the desired value afterwards: https://github.com/ethereum/EIPs/issues/20#issuecomment-263524729 Emits an {Approval} event."
      },
      "totalSupply()": {
        "details": "Returns the amount of tokens in existence."
      },
      "transferFrom(address,address,uint256)": {
        "details": "Moves `amount` tokens from `from` to `to` using the allowance mechanism. `amount` is then deducted from the caller's allowance. Returns a boolean value indicating whether the operation succeeded. Emits a {Transfer} event."
      }
    },
    "version": 1
  },
  "userdoc": {
    "kind": "user",
    "methods": {},
    "version": 1
  }
}